{
  "abi": [
    {
      "inputs": [],
      "name": "underlying",
      "outputs": [
        {
          "internalType": "address",
          "name": "",
          "type": "address"
        }
      ],
      "stateMutability": "view",
      "type": "function"
    }
  ],
  "bytecode": {
    "object": "0x6080604052348015600f57600080fd5b5060918061001e6000396000f3fe6080604052348015600f57600080fd5b506004361060285760003560e01c80636f307dc314602d575b600080fd5b600054603f906001600160a01b031681565b6040516001600160a01b03909116815260200160405180910390f3fea264697066735822122016a46c72cc350ce100117a5824d1e985d4b66d298f3c786c688eb2c810b026fe64736f6c63430008130033",
    "linkReferences": {}
  },
  "methodIdentifiers": {
    "underlying()": "6f307dc3"
  },
  "id": 2
}